:04002C000034003468
:06120800000089310E29EF
:101210007E148931943171247E100900893110299E
:10122000CD3084008F308500D930860001308700B2
:1012300014308F31E1278931683084000030850017
:1012400008308F31E727893121006030EF018400B9
:101250000130850010308F31E7278931A0308400BC
:101260000130850039308F31E72789317E10200029
:1012700039290030DB2289318B238931722389316E
:10128000432189314029203021006F02031C0800CE
:101290003D008E1808002300310832040319C329C9
:1012A0003108860032088700811B0800C329BC3042
:1012B000860001308700A03E84001830850121009F
:1012C000EB006B080319682912001E00EB0B642960
:1012D000BC305F228931D52983302200A000013043
:1012E000203E860001308700BC308400013085003C
:1012F00018302100EB006B080319A42912001E000E
:10130000EB0B7E29A429EC01210803198929EC01A2
:10131000EC0A6C0C2200031C8E1003188E14D529C5
:1013200082302200A000003020008E180130220000
:10133000A100A429B0302200A0000330A101A10A1D
:10134000A2004B30A301A40023002F08300403198E
:10135000AF292F08860030088700811BD52921007E
:101360002030E001E00AE1000130E2004030E3001B
:101370000130E621893161082300B00021006008B6
:101380002300AF00D52921002008803A03195729EE
:10139000013A03198329033A03199029013A0319E1
:1013A0006C29333A03199A29D5292100A030E0018C
:1013B000E1004030E201E3000130E6216108230052
:1013C000B200210060082300B1000800E8006008B6
:1013D0000319F3296835603E860001308700403FDD
:1013E000E900413FFB296835AB3E860001308700AC
:1013F000403FE900413FEA006904031D022AE00181
:10140000E10108006108E4007F306205E500690839
:1014100086006A08870042316408C03F6508C13F02
:101420006908013EE40000306A3DE500640886007A
:101430006508870063088100690886006A088700DC
:1014400040308105690886006A08870081156908AF
:1014500086006A088700811760080319452A6835E5
:10146000603E860001308700403FE400413FE500D8
:1014700004306406E6006508E7006835603E8600D3
:101480006608C03F6708C13F5A2A6835AB3E8600F0
:1014900001308700403FE400413FE500043064062E
:1014A000E6006508E7006835AB3E86006608C03F89
:1014B0006708C13F6A08E1006908E00008002100F0
:1014C000E7000530E8006808090709076707E20038
:1014D000860001308700403FE300413FE400423F87
:1014E000E500433FE600E300E401E501E601E0003A
:1014F0000130CA22893121006808090709076707F6
:10150000E200860001308700403FE300413FE400F5
:10151000423FE500433FE6006508E3006608E4005B
:10152000E501E6016308E0000130CA2289312100AB
:101530006808090709076707E2008600013087008D
:10154000403FE300413FE400423FE500433FE60007
:101550006408E3006508E4006608E500E601630846
:10156000E0000130CA228931210068080907090713
:101570006707E2008600013087000108E0000130C3
:10158000CA22893122008D168D122100E803E81B42
:101590000800632AE100610B080024001108200004
:1015A00091112100600824009100951B0800200083
:1015B00091190800D72A2100E600012BFC30990080
:1015C000903027009B000D23893121005030E70126
:1015D000E70AE801EC01EC0AEB01E901EA01EE019E
:1015E000ED00E730092421000E118D128E1023002A
:1015F0008E1021008D170E148E130D1322000E1560
:1016000008006608003A0319DE2A013A03190C2B78
:10161000033A03190C2B0C2B080016308400803081
:101620008500003F2100E000013FE100610E0F391D
:10163000E0000F30E1016005E200E301413EE4001B
:101640000030633DE50064082300E50021006508E3
:101650002300E6001730840000080F39413E2100C6
:10166000E000003003180130E10060082300E700CB
:10167000210061082300E80016308400003F2100AB
:10168000E000013FE1000430E136E00C890B442B1F
:101690000F306005E200E301413EE4000030633DAD
:1016A000E50064082300E900210065082300EA0042
:1016B0001630840080308500003F2100E000013FAB
:1016C000E1000F306005E200E301413EE40000303C
:1016D000633DE50064082300EB002100650823005A
:1016E000EC0008006F08031D08003D008E01920108
:1016F000163091009F3097007B3092002100121528
:101700000B178B173D008E19872B8E15822B0130FE
:101710002100EF000800210012113D00930190010B
:1017200098010E302100E1009930E000E2016008EC
:101730008600610887008101E00A0319E10AE20AD4
:101740000319972B16303D0091009F3097007B3096
:1017500092002100E301630809070907203E860083
:1017600000308701C03FC13FC23FC33F0830E30A9A
:101770006302031CAB2B3D000E1796010E120E13D5
:1017800090112000EA012300A201A301A4013D0061
:101790009019C02B01302300B700B600B501B40189
:1017A000B9012100E3016335603E86000130870006
:1017B0000030C03FC13F6335AB3E86000030C03FC4
:1017C000C13F6308663E860081016308643E86006F
:1017D00002308101E30A6302031CD32B283022006C
:1017E000E0001630E1013D0098002000A3014030E8
:1017F000A2000830A1000430A000A0172200EF01D1
:101800002300A701A801A901AA01B3012100EF014A
:101810000800E200860087011600013AE000160089
:10182000E004031D08002400940121006208053E25
:1018300086008701010C2400031C141303181417DD
:10184000950121006208043E860024001508010667
:10185000F039010695003A2C24001512342C24008E
:101860001512382C2400151694134D2C240015162F
:1018700094174D2C21006208063E8600870101085E
:10188000503A03192C2C013A03192F2C033A03194F
:10189000322C013A0319362C4D2C210062088600A7
:1018A0008701423F2400920095160800F900741D3C
:1018B0005C2CF00173248C31F41C622CF001F00AD2
:1018C000790873247908983EF5000E30F601F63D4C
:1018D0007508F7007608F800770886007808870012
:1018E000740881000800F2002030F3007008F10055
:1018F000F135720809070907710709070907F30796
:1019000073088600870181137008031D912C7235BE
:10191000AB3E8600013087007308C03F0030C13FF6
:101920009A2C7235603E8600013087007308C03FF4
:101930000030C13F73088600870101137308043E1D
:1019400086000117080091315729913158299131AA
:1019500046299131582991314629913147299131B0
:101960004C2991316B2991314E2991314D29913179
:10197000592991316229913146298F31CC2F8F31EC
:101980009F2F8F31AF2F8F31CC2F8F31CC2F8F31B5
:10199000CC2F8F31CC2F8F31CC2F8F31CC2F8F315B
:0619A000A92F8F31B92FC1
:101A00009531202D9531352D9531212D9531352D5F
:101A10009531352D9531352D9531352D9531352D26
:101A20009531352D9531352D9531352D9531352D16
:101A30009531352D9531352D9531352D9531352D06
:101A40009531352D9531352D9531352D9531352DF6
:101A50009531352D9531352D9531352D9531352DE6
:101A60009531352D9531352D9531352D9531352DD6
:101A70009531352D9531352D9531352D9531352DC6
:101A80009531352D9531352D9531352D9531352DB6
:101A90009531352D9531352D9531352D9531352DA6
:101AA0009531352D9531352D9531352D9531352D96
:101AB0009531352D9531352D9531352D9531352D86
:101AC0009531352D9531352D9531352D9531352D76
:101AD0009531352D9531352D9531352D9531352D66
:101AE0009531352D9531352D9531352D9531352D56
:101AF0009531352D9531352D9531352D9531352D46
:101B00009531352D9531352D9531352D9531352D35
:101B10009531352D9531352D9531352D9531352D25
:101B20009531352D9531352D9531352D9531352D15
:101B30009531352D9531352D9531352D9531352D05
:101B40009531352D9531352D9531352D9531352DF5
:101B50009531352D9531352D9531352D9531352DE5
:101B60009531352D9531352D9531352D9531352DD5
:101B70009531352D9531352D9531352D9531352DC5
:101B80009531352D9531352D9531352D9531352DB5
:101B90009531352D9531352D9531352D9531352DA5
:101BA0009531352D9531352D9531352D9531352D95
:101BB0009531352D9531352D9531352D9531352D85
:101BC0009531352D9531352D9531352D95311D2D8D
:101BD00095311A2D20006F0886008701413FF500DE
:101BE000F200F301730823002402031DF92D72088B
:101BF00023020318FD2D2308F5007508A302031C1A
:101C0000A403F401750874020318122E200886003C
:101C100087017408483E8400850100088100A00AFD
:101C2000F40A022E2308240403194B2E20006D0809
:101C3000013EF20000306E3DF3007208860073082A
:101C40008700083081004830F200F3016D088600FB
:101C50006E08870042317208C03F7308C13F6F08A9
:101C6000860087016D08011B402E86006E088700E4
:101C7000483081006D0886006E08870081170800D3
:101C800086006E088700083081006D0886006E08A7
:101C900087008117080020006D08013EF200003027
:101CA0006E3DF300720886007308870008308100DB
:101CB0004030F200F3016D0886006E088700423163
:101CC0007208C03F7308C13F6D0886006E08870028
:101CD000043081006D0886006E088700811723009C
:101CE00025082608A21322006808031D0800953164
:101CF000362D210012113D009301900198010E3004
:101D0000F1009930F000F201700886007108870038
:101D10008101F00A0319F10AF20A0319842E163020
:101D200091009F3097007B309200F3017308090700
:101D30000907203E860000308701C03FC13FC23FF7
:101D4000C33F0830F30A7302031C962E0E17960148
:101D50000E120E1390112000EA012300A201A3012C
:101D6000A4013D009019AA2E01302300B700B6004F
:101D7000B501B401B901F3017335603E860001304D
:101D800087000030C03FC13F7335AB3E8600003056
:101D9000C03FC13F7308663E860081017308643E00
:101DA000860002308101F30A7302031CBC2E283026
:101DB0002200E0001630E1013D0098002000A30160
:101DC0004030A2000830A1000430A000A01722007B
:101DD000EF012300A701A801A901AA01B301210075
:101DE000EF010800F80070080319FF2E7835603EF7
:101DF000860001308700403FF900413F072F7835CA
:101E0000AB3E860001308700403FF900413FFA00B9
:101E10007904031D0E2FF001F10108007108F40090
:101E20007F307205F500790886007A088700423114
:101E30007408C03F7508C13F7908013EF4000030C6
:101E40007A3DF500740886007508870073088100E4
:101E5000790886007A088700403081057908860075
:101E60007A0887008115790886007A08870081172B
:101E700070080319512F7835603E860001308700C5
:101E8000403FF400413FF50004307406F600750849
:101E9000F7007835603E86007608C03F7708C13F7E
:101EA000662F7835AB3E860001308700403FF40056
:101EB000413FF50004307406F6007508F7007835E8
:101EC000AB3E86007608C03F7708C13F7A08F10034
:101ED0007908F000080040081F39013A031D080086
:101EE0004408031D08000630410603198C2F972F64
:101EF00022006F0B972F3E302000E8009830E90059
:101F00000930872F5530E8009830E9001D30EB008C
:101F1000EC01C030EA00972F4308213A0319782FCB
:101F2000033A0319822F013A0319972F972F2000A4
:101F3000400E890C0339013A031D0800BF2FD83029
:101F4000E8000130E9000130EB00EC01C130EA00AB
:101F500008008030EA0043082300D8000800D7308A
:101F6000E8000130E9000130EB00EC018130EA00CB
:101F700008008030EA0042082300D700080041082A
:101F8000FF3E031C080084000B3004020318080005
:101F90008C310435BD3E82000800143403345534BE
:101FA0000034493400344F34003456340034333470
:101FB0000034583400345834003458340034583421
:101FC0000034FE0012001E00FE0BE22F00346400FD
:0A1FD00080010131890BE82F003475
:102208002200EC01E8012300B501B401B801220065
:10221800EB016008860061088700043081136006BE
:10222800E000860061088700043081136006E00042
:1022380020006D0886006E0887008113EA01EB0113
:10224800EC012300A201A301A4013621913103303E
:102258002000D900DA01DB01DC01DD01DE011225F5
:1022680091319D2A2000400E890C0339031D080076
:10227800410884000D300402031808008C3104352D
:10228800A33E82000800EA1708302100EF0008008A
:102298007329252A6F30E8000130E9006A140130FB
:1022A800EB00EA170800DB29702B44086E3EE800B3
:1022B8000130E9006A14EB00EA170800EA1744083D
:1022C8006E3E860001308700420881000800023017
:1022D800D900DA01DB01DC01DD01DE01122D8030DD
:1022E80020004006031D0800C030EA00CF298C30CA
:1022F800E8009830E9001230EB00EC0108004208D1
:10230800031DAE294208F000AA30F101F035F10DA5
:10231800700784009830713D8500003FE800013F58
:10232800E9006908F1006808F000023E84007108BD
:102338000318710A85000008EB006908F1006808B5
:10234800F000033E840071080318710A8500000834
:10235800EC000800EA010800043042020318CB2907
:102368004208F0009E30F101F035F10D700784004D
:102378009830713D8500003FE800013FE90068089A
:102388008400690885000008EB00EC010800EA01F8
:102398000800EA0108004308013A03197B29033AB7
:1023A80003198329013A0319B029CD29080020000F
:1023B800C801C901102AEA1723003A0B1B2A20007A
:1023C800C8141B2AEA171B2AEA17C41BF629440853
:1023D8000F390907AB3E860001308700403FF00007
:1023E800413F002A44080F390907603E8600013042
:1023F8008700403FF000413FF100700886007108F7
:102408008700811F1B2A7008860071088700011D3C
:102418001B2A0130C8001B2A40081F390319DF296D
:10242800013A0319E629033A0319E8291B2A20006F
:10243800EA1F08004830E800E9016A140230EB009E
:1024480008002000EA170E30E0009930DF00E101B3
:102458005F088600600887008101DF0A0319E00A27
:10246800E10A03192C2A2030F000F101F201F301EE
:10247800F400F501862291313D000E172000E2019B
:102488006208663E86000130870081016208643E6A
:10249800860002308101E20A6202031C442A6E307F
:1024A800F0000130F100F201F301F401F40AF50142
:1024B800862291313D000E1328302200E0002030A2
:1024C800E1012000EF00ED00FF39031D0030EE00B0
:1024D80042082200EF006F08031D762A1030210001
:1024E800EF00080020006F30D901D90ADA01DB00BB
:1024F8000130DC00DD01DD0ADE011225203021007B
:10250800EF0008007108F7007008F6000130F402C7
:102518000030F53B740F932A750A031908007608F2
:1025280086007708870072088100F60A0319F70AFF
:102538008A2A3D000E122000EA1BE22A2300A21F6D
:10254800B12A02302200EB0023003408031DAD2A13
:102558001D232300B601B701080020006D08013EC5
:10256800F50000306E3DF600750886007608870095
:10257800083081004030F500F6016D0886006E08CD
:10258800870042317508C03F7608C13F6D08860054
:102598006E0887000C3081006D0886006E08870081
:1025A80081172200600886006108870004308100D6
:1025B800600886006108870081170800C01FF52A97
:1025C80001302200EB0023003508031DED2A1D23EE
:1025D80091312300B601B70122006808031D0800E5
:1025E800362D02302200EB0020006D08013EF50078
:1025F80000306E3DF60075088600760887000830C2
:1026080081004030F500F6016D0886006E088700ED
:1026180042317508C03F7608C13F6D0886006E08D4
:102628008700043081006D0886006E0887008117D6
:10263800ED2AB501B401023022006B06031D492BB7
:1026480020006D08013EF30000306E3DF400730871
:10265800860074088700083081004830F300F401D0
:102668006D0886006E08870042317308C03F740801
:10267800C13F6D0886006E088700483081006D08EC
:1026880086006E0887008117080020006C08470242
:10269800031D502B6B0846020318562B4708EC0005
:1026A8004608EB004D274830F300F401220060088B
:1026B80086006108870042317308C03F7408C13F33
:1026C800600886006108870048308100600886003D
:1026D80061088700811708002000420B822B400800
:1026E8001F39031D822BEA1703304106031D802B77
:1026F80001302300BA00822B2300BA0120004208CF
:10270800031D080040081F39023A031D0800440849
:102718000F390319080044080F39FB0002307B0207
:1027280003180800203021006F06031D0800200050
:10273800EA17C41BAE2B44080F390907AB3E8600C5
:1027480001308700403FE200413FE30044080F3971
:10275800643EBC2B44080F390907603E86000130EF
:102768008700403FE200413FE30044080F39663EDE
:1027780086000108E1006118CC2BFB30FB00FF301C
:10278800FC0062087B05E20063087C05E300CF2BB0
:1027980004306204E200C41BDD2B44080F3909072A
:1027A800AB3E8600013087006208C03F6308C13F26
:1027B800E82B44080F390907603E8600013087007E
:1027C8006208C03F6308C13F03304106031D0A2C5D
:1027D8006208860063088700811FFF2BC41BF82B43
:1027E80044080F39643EFB2B44080F39663E8600C7
:1027F800013087008114620886006308870001158C
:1028080062088600630887008117080004306206A2
:10281800E2008600630887006208811F292C860071
:102828006308870081136208860063088700053003
:102838000117D900DA016308DC006208DB00023006
:10284800DD00DE01122591312D2C860063088700FA
:102858000117043020006206E200E118392C6208F2
:10286800860063088700811F592CC41B3F2C44082D
:102878000F39643E422C44080F39663E8600013009
:102888008700811062088600630887003B30810555
:102898000530D900DA016308DC006208DB00023089
:1028A800DD00DE01122591315F2C62088600630885
:1028B80087003B308105200044080F39983EFB0013
:1028C8000E30FC01FC3D7B08DF007C08E0005F085F
:1028D8008600600887000110080021006F03031DAF
:1028E8007E2C3D008E1A7E2C900112141216023096
:1028F8002100EF003D001019121D852C10119F2694
:1029080091313D008E1C8B2C2000121108001018EC
:10291800121C962C8E317926913112150430EF0055
:102928003D001010101A121E9B2C8F2691313D006D
:10293800101FB82C121FAB2C73302000D900DA01FD
:10294800DB01DC01DD01DD0ADE01122591313D00EC
:1029580010135E26913122006908031DE9036908F6
:10296800031DB82C362591313D00901A921EBE2CBD
:102978006F2691319018921CCF2CFF302000D9007F
:102988007F30DA00DB01DC01DD01DD0ADE01122522
:1029980091313D009301043021006F020318D72CB8
:1029A8002000121108003D00921D0F2D2000E701A4
:1029B8000C2D0F082200ED006D0CFD00FD0C7D0CA8
:1029C8000F39EA003D00901122006D19EE2C6A08BB
:1029D800643EF02C6A08663E860001308700810656
:1029E8006A08031DFA2C1E269131062D723020002C
:1029F800D9006D30DA01DB000130DC00DD01DE01D9
:102A08001225913120000430E70A670203180F2DC0
:102A18003D009019DD2C2000121108005A08003AD8
:102A28000319232D7F3A0319302D352D01309625B2
:102A38000800023096250800A62F8F316B2F590801
:102A4800FF3E031C080084007530040203180800C8
:102A58008D310435003E82005908FF3A0319352D9F
:102A6800352D080023003708031D08000130B70082
:102A78003608031D08000130B600023022006B063C
:102A8800031D582D600886006108870041318101C7
:102A98006008860061088700483081006008860069
:102AA80061088700811708006B0B08002300B80134
:102AB80020006F0A86000830870181004030F0004E
:102AC800F1016F08023E86007008C03F7108C13FDF
:102AD8006F088600043081006F0886000130811776
:102AE8002300B80020006D08013EF00000306E3D64
:102AF800F1007008860071088700083081004030B6
:102B0800F000F1016D0886006E08870042317008F8
:102B1800C03F7108C13F6D0886006E08870080308D
:102B280081000800D000BC2DFC30210099009030B5
:102B380027009B00C825913120005030D101D10ACF
:102B4800D201D601D60AD501D301D401D801D700C4
:102B58005130BE2721000E118D128E1023008E10C9
:102B680021008D170E148E130D1322000E15080068
:102B78005008003A0319982D013A0319C72D033A52
:102B88000319C72DC72D0800163084008030850032
:102B9800003FF000013FF100710E0F39F0000F30D7
:102BA800F1017005F200F301413EF4000030733D7D
:102BB800F50074082300E5007508E6001730840066
:102BC80000080F39413EF000003003180130F100D1
:102BD8007008E7007108E80016308400003FF00034
:102BE800013FF1000430F136F00C890BF72D0F305E
:102BF8007005F200F301413EF4000030733DF5002A
:102C08007408E9007508EA001630840080308500F1
:102C1800003FF000013FF1000F307005F200F301B2
:102C2800413EF4000030733DF5007408EB00750870
:102C3800EC0008002D30E9006D08FD39031D562E03
:102C48006D363F3909070907203E2000EF00ED00E7
:102C5800FF39031D0030EE0004306D06ED006F08EB
:102C680086008701010C890C0F390D3A031D552E7A
:102C78004030860020006F08023E84008501003F36
:102C8800E400013FE5006408840065088500083019
:102C9800E60066080319542E12001E00E60B502E9B
:102CA8000429B62EFD306D052000E400043A031D0A
:102CB8000800E92E01302300A7070030A83DA93DF0
:102CC800AA3D3908031D0800B30A3308031D08008C
:102CD800FF30B3000800181C8D2E20006F088600F6
:102CE800803087010106031D8B2E220060088600B4
:102CF8006108870084300106031D8B2E20006F08B1
:102D080086000C30870181006F08860081173D001E
:102D1800181090120800121510128E14013023009A
:102D2800B900B30175302000D900DA01DB01DC01FC
:102D3800DD01DE01122D2300B90174302000D90015
:102D48000030DA01DB01DC01DD01DE011225913101
:102D58003D008E101211101DB32E1011AF2E23003E
:102D6800B3010800023022006B06031DBD2E8D3111
:102D7800EA2DEB0123003808031DE72E20006D081B
:102D8800013EF60000306E3DF700760886007708B1
:102D98008700083081004030F600F7016D08860092
:102DA8006E08870042317608C03F7708C13F6D083A
:102DB80086006E0887000C3081006D0886006E085A
:102DC800870081170800B801080022006008860003
:102DD800610887000030011B0130F50004306006EF
:102DE800E000083021006F06031D072F200042086D
:102DF8007F393D00960016080319042F1030052F5F
:102E080004302100EF0022006B0B442F4830F30000
:102E1800F401600886006108870042317308C03FEA
:102E28007408C13F4D279131023022006C06031D02
:102E3800292F600886006108870004308100600837
:102E4800860061088700811708007508031D382F60
:102E580060088600610887004830810060088600A5
:102E680061088700811708006008860061088700EC
:102E78000830810060088600610887008117080013
:102E88002300A21F4A2F25082608A2132200EB01BF
:102E980008000830F200003020006C0208300319E6
:102EA8006B020318632F6B08F20022006C08031DE5
:102EB8005F2F0130622F6C0B632F0230EC00720819
:102EC8002000EB02031CEC0322006008013EF00026
:102ED8000030613DF10070088600710887007208B3
:102EE800810048302300BB0020006A1C8D2FA22FD0
:102EF80023003B08860087012000680884006908D1
:102F0800850000088100E80A0319E90A2300BB0AC2
:102F1800F2037208031908007C2F23003B0886007F
:102F2800870120006808840069088500000881007E
:102F3800E80A0319E90A2300BB0AF2037208031915
:102F48000800912F23001E30AF01B001F4000130BA
:102F58008C3156249131A030F001F1004030F2015B
:102F6800F30001308E31F22671082300B200700898
:102F7800B1000800F200860087011600013AF0004F
:102F88001600F004031D0800240094017208053E91
:102F980086008701010C031C1413031814179501EC
:102FA8007208043E860015080106F03901069500EE
:102FB800E72F1512E22F1512E52F15169413F92F86
:102FC80015169417F92F7208063E86008701010826
:102FD800503A0319DD2F013A0319DF2F033A031979
:102FE800E12F013A0319E42FF92F720886008701AF
:102FF800423F9200951608002C340334773400348D
:1030080077340034773400342E34003443340034B9
:103018006934003472340034633400347534003455
:103028006934003474340034563400346134003464
:103038006C3400346C340034653400347934003432
:103048002E340034633400346F3400346D3400346B
:103058000934023429340034013401340034C034D2
:103068003234093404340034003402340334003474
:10307800003400340934213411340134003401346B
:1030880022341D3400340734053481340334403489
:103098000034013407340534013403344034003437
:1030A800013406340034FF3409340134A1340134C6
:1030B8001934013429344034153400342634FF34AB
:1030C800003475340834953440348134003419346C
:1030D80001342934403491340034C0341A34033470
:1030E800433400345634003420340034553400342A
:1030F800533400344234003420340034493400342A
:103108004F3400342034003456340034333400341F
:1031180012340134003402340034003400340834EA
:1031280009341234773477340334013401340234E7
:1031380003340134A6349834003498347234983403
:10314800D934013404340334093404342C34983425
:020000040001F9
:04000E00A4CFCFDFCD
:00000001FF
